{
  "contractName": "ImageNFT",
  "abi": [
    {
      "inputs": [
        {
          "internalType": "address payable",
          "name": "_owner",
          "type": "address"
        },
        {
          "internalType": "uint256",
          "name": "_minimumBid",
          "type": "uint256"
        },
        {
          "internalType": "address",
          "name": "_auctioneer",
          "type": "address"
        }
      ],
      "stateMutability": "nonpayable",
      "type": "constructor"
    },
    {
      "anonymous": false,
      "inputs": [
        {
          "indexed": true,
          "internalType": "address",
          "name": "owner",
          "type": "address"
        },
        {
          "indexed": true,
          "internalType": "address",
          "name": "approved",
          "type": "address"
        },
        {
          "indexed": true,
          "internalType": "uint256",
          "name": "tokenId",
          "type": "uint256"
        }
      ],
      "name": "Approval",
      "type": "event"
    },
    {
      "anonymous": false,
      "inputs": [
        {
          "indexed": true,
          "internalType": "address",
          "name": "owner",
          "type": "address"
        },
        {
          "indexed": true,
          "internalType": "address",
          "name": "operator",
          "type": "address"
        },
        {
          "indexed": false,
          "internalType": "bool",
          "name": "approved",
          "type": "bool"
        }
      ],
      "name": "ApprovalForAll",
      "type": "event"
    },
    {
      "anonymous": false,
      "inputs": [
        {
          "indexed": false,
          "internalType": "address",
          "name": "winner",
          "type": "address"
        },
        {
          "indexed": false,
          "internalType": "uint256",
          "name": "amount",
          "type": "uint256"
        }
      ],
      "name": "AuctionEnded",
      "type": "event"
    },
    {
      "anonymous": false,
      "inputs": [
        {
          "indexed": true,
          "internalType": "bytes32",
          "name": "hashed",
          "type": "bytes32"
        }
      ],
      "name": "GetBlindBid",
      "type": "event"
    },
    {
      "anonymous": false,
      "inputs": [
        {
          "indexed": true,
          "internalType": "address",
          "name": "from",
          "type": "address"
        },
        {
          "indexed": true,
          "internalType": "address",
          "name": "to",
          "type": "address"
        },
        {
          "indexed": true,
          "internalType": "uint256",
          "name": "tokenId",
          "type": "uint256"
        }
      ],
      "name": "Transfer",
      "type": "event"
    },
    {
      "anonymous": false,
      "inputs": [
        {
          "indexed": false,
          "internalType": "address",
          "name": "bidder",
          "type": "address"
        },
        {
          "indexed": false,
          "internalType": "uint256",
          "name": "amount",
          "type": "uint256"
        },
        {
          "indexed": false,
          "internalType": "uint256",
          "name": "userCount",
          "type": "uint256"
        }
      ],
      "name": "roundEnded",
      "type": "event"
    },
    {
      "anonymous": false,
      "inputs": [
        {
          "indexed": false,
          "internalType": "uint256",
          "name": "amount",
          "type": "uint256"
        }
      ],
      "name": "roundStarted",
      "type": "event"
    },
    {
      "inputs": [],
      "name": "activeUsersCount",
      "outputs": [
        {
          "internalType": "uint256",
          "name": "",
          "type": "uint256"
        }
      ],
      "stateMutability": "view",
      "type": "function"
    },
    {
      "inputs": [
        {
          "internalType": "address",
          "name": "to",
          "type": "address"
        },
        {
          "internalType": "uint256",
          "name": "tokenId",
          "type": "uint256"
        }
      ],
      "name": "approve",
      "outputs": [],
      "stateMutability": "nonpayable",
      "type": "function"
    },
    {
      "inputs": [],
      "name": "auctioneer",
      "outputs": [
        {
          "internalType": "address",
          "name": "",
          "type": "address"
        }
      ],
      "stateMutability": "view",
      "type": "function"
    },
    {
      "inputs": [
        {
          "internalType": "address",
          "name": "owner",
          "type": "address"
        }
      ],
      "name": "balanceOf",
      "outputs": [
        {
          "internalType": "uint256",
          "name": "",
          "type": "uint256"
        }
      ],
      "stateMutability": "view",
      "type": "function"
    },
    {
      "inputs": [
        {
          "internalType": "address",
          "name": "",
          "type": "address"
        },
        {
          "internalType": "uint256",
          "name": "",
          "type": "uint256"
        }
      ],
      "name": "bids",
      "outputs": [
        {
          "internalType": "uint256",
          "name": "maskedBid",
          "type": "uint256"
        },
        {
          "internalType": "bytes32",
          "name": "saltHash",
          "type": "bytes32"
        }
      ],
      "stateMutability": "view",
      "type": "function"
    },
    {
      "inputs": [],
      "name": "cancelled",
      "outputs": [
        {
          "internalType": "bool",
          "name": "",
          "type": "bool"
        }
      ],
      "stateMutability": "view",
      "type": "function"
    },
    {
      "inputs": [],
      "name": "copy",
      "outputs": [
        {
          "internalType": "uint256",
          "name": "",
          "type": "uint256"
        }
      ],
      "stateMutability": "view",
      "type": "function"
    },
    {
      "inputs": [],
      "name": "counter",
      "outputs": [
        {
          "internalType": "uint256",
          "name": "",
          "type": "uint256"
        }
      ],
      "stateMutability": "view",
      "type": "function"
    },
    {
      "inputs": [],
      "name": "ended",
      "outputs": [
        {
          "internalType": "bool",
          "name": "",
          "type": "bool"
        }
      ],
      "stateMutability": "view",
      "type": "function"
    },
    {
      "inputs": [
        {
          "internalType": "uint256",
          "name": "tokenId",
          "type": "uint256"
        }
      ],
      "name": "getApproved",
      "outputs": [
        {
          "internalType": "address",
          "name": "",
          "type": "address"
        }
      ],
      "stateMutability": "view",
      "type": "function"
    },
    {
      "inputs": [],
      "name": "hashedBid",
      "outputs": [
        {
          "internalType": "bytes32",
          "name": "",
          "type": "bytes32"
        }
      ],
      "stateMutability": "view",
      "type": "function"
    },
    {
      "inputs": [],
      "name": "highestBidder",
      "outputs": [
        {
          "internalType": "address",
          "name": "",
          "type": "address"
        }
      ],
      "stateMutability": "view",
      "type": "function"
    },
    {
      "inputs": [],
      "name": "highestBindingBid",
      "outputs": [
        {
          "internalType": "uint256",
          "name": "",
          "type": "uint256"
        }
      ],
      "stateMutability": "view",
      "type": "function"
    },
    {
      "inputs": [
        {
          "internalType": "string",
          "name": "",
          "type": "string"
        }
      ],
      "name": "imageIDs",
      "outputs": [
        {
          "internalType": "uint256",
          "name": "",
          "type": "uint256"
        }
      ],
      "stateMutability": "view",
      "type": "function"
    },
    {
      "inputs": [
        {
          "internalType": "uint256",
          "name": "",
          "type": "uint256"
        }
      ],
      "name": "images",
      "outputs": [
        {
          "internalType": "string",
          "name": "",
          "type": "string"
        }
      ],
      "stateMutability": "view",
      "type": "function"
    },
    {
      "inputs": [],
      "name": "ipfsHash",
      "outputs": [
        {
          "internalType": "uint256",
          "name": "",
          "type": "uint256"
        }
      ],
      "stateMutability": "view",
      "type": "function"
    },
    {
      "inputs": [
        {
          "internalType": "address",
          "name": "owner",
          "type": "address"
        },
        {
          "internalType": "address",
          "name": "operator",
          "type": "address"
        }
      ],
      "name": "isApprovedForAll",
      "outputs": [
        {
          "internalType": "bool",
          "name": "",
          "type": "bool"
        }
      ],
      "stateMutability": "view",
      "type": "function"
    },
    {
      "inputs": [],
      "name": "minimumBid",
      "outputs": [
        {
          "internalType": "uint256",
          "name": "",
          "type": "uint256"
        }
      ],
      "stateMutability": "view",
      "type": "function"
    },
    {
      "inputs": [],
      "name": "name",
      "outputs": [
        {
          "internalType": "string",
          "name": "",
          "type": "string"
        }
      ],
      "stateMutability": "view",
      "type": "function"
    },
    {
      "inputs": [],
      "name": "owner",
      "outputs": [
        {
          "internalType": "address payable",
          "name": "",
          "type": "address"
        }
      ],
      "stateMutability": "view",
      "type": "function"
    },
    {
      "inputs": [
        {
          "internalType": "uint256",
          "name": "tokenId",
          "type": "uint256"
        }
      ],
      "name": "ownerOf",
      "outputs": [
        {
          "internalType": "address",
          "name": "",
          "type": "address"
        }
      ],
      "stateMutability": "view",
      "type": "function"
    },
    {
      "inputs": [
        {
          "internalType": "address",
          "name": "",
          "type": "address"
        }
      ],
      "name": "pendingReturns",
      "outputs": [
        {
          "internalType": "uint256",
          "name": "",
          "type": "uint256"
        }
      ],
      "stateMutability": "view",
      "type": "function"
    },
    {
      "inputs": [],
      "name": "roundNumber",
      "outputs": [
        {
          "internalType": "uint256",
          "name": "",
          "type": "uint256"
        }
      ],
      "stateMutability": "view",
      "type": "function"
    },
    {
      "inputs": [
        {
          "internalType": "address",
          "name": "from",
          "type": "address"
        },
        {
          "internalType": "address",
          "name": "to",
          "type": "address"
        },
        {
          "internalType": "uint256",
          "name": "tokenId",
          "type": "uint256"
        }
      ],
      "name": "safeTransferFrom",
      "outputs": [],
      "stateMutability": "nonpayable",
      "type": "function"
    },
    {
      "inputs": [
        {
          "internalType": "address",
          "name": "from",
          "type": "address"
        },
        {
          "internalType": "address",
          "name": "to",
          "type": "address"
        },
        {
          "internalType": "uint256",
          "name": "tokenId",
          "type": "uint256"
        },
        {
          "internalType": "bytes",
          "name": "_data",
          "type": "bytes"
        }
      ],
      "name": "safeTransferFrom",
      "outputs": [],
      "stateMutability": "nonpayable",
      "type": "function"
    },
    {
      "inputs": [
        {
          "internalType": "address",
          "name": "operator",
          "type": "address"
        },
        {
          "internalType": "bool",
          "name": "approved",
          "type": "bool"
        }
      ],
      "name": "setApprovalForAll",
      "outputs": [],
      "stateMutability": "nonpayable",
      "type": "function"
    },
    {
      "inputs": [
        {
          "internalType": "bytes4",
          "name": "interfaceId",
          "type": "bytes4"
        }
      ],
      "name": "supportsInterface",
      "outputs": [
        {
          "internalType": "bool",
          "name": "",
          "type": "bool"
        }
      ],
      "stateMutability": "view",
      "type": "function"
    },
    {
      "inputs": [],
      "name": "symbol",
      "outputs": [
        {
          "internalType": "string",
          "name": "",
          "type": "string"
        }
      ],
      "stateMutability": "view",
      "type": "function"
    },
    {
      "inputs": [
        {
          "internalType": "uint256",
          "name": "tokenId",
          "type": "uint256"
        }
      ],
      "name": "tokenURI",
      "outputs": [
        {
          "internalType": "string",
          "name": "",
          "type": "string"
        }
      ],
      "stateMutability": "view",
      "type": "function"
    },
    {
      "inputs": [
        {
          "internalType": "address",
          "name": "from",
          "type": "address"
        },
        {
          "internalType": "address",
          "name": "to",
          "type": "address"
        },
        {
          "internalType": "uint256",
          "name": "tokenId",
          "type": "uint256"
        }
      ],
      "name": "transferFrom",
      "outputs": [],
      "stateMutability": "nonpayable",
      "type": "function"
    },
    {
      "inputs": [
        {
          "internalType": "string",
          "name": "_imageCID",
          "type": "string"
        }
      ],
      "name": "createImage",
      "outputs": [],
      "stateMutability": "nonpayable",
      "type": "function"
    },
    {
      "inputs": [
        {
          "internalType": "uint256",
          "name": "_imageID",
          "type": "uint256"
        }
      ],
      "name": "buyImage",
      "outputs": [
        {
          "internalType": "bool",
          "name": "",
          "type": "bool"
        }
      ],
      "stateMutability": "payable",
      "type": "function"
    },
    {
      "inputs": [
        {
          "internalType": "uint256",
          "name": "value",
          "type": "uint256"
        }
      ],
      "name": "generateBlindedBidBytes32",
      "outputs": [],
      "stateMutability": "payable",
      "type": "function"
    },
    {
      "inputs": [],
      "name": "gettBlindedBidBytes32",
      "outputs": [
        {
          "internalType": "bytes32",
          "name": "",
          "type": "bytes32"
        }
      ],
      "stateMutability": "view",
      "type": "function"
    },
    {
      "inputs": [
        {
          "internalType": "bytes32",
          "name": "_blindedBid",
          "type": "bytes32"
        }
      ],
      "name": "bid",
      "outputs": [],
      "stateMutability": "payable",
      "type": "function"
    },
    {
      "inputs": [
        {
          "internalType": "uint256",
          "name": "extraBid",
          "type": "uint256"
        }
      ],
      "name": "revealAndPlaceBid",
      "outputs": [],
      "stateMutability": "nonpayable",
      "type": "function"
    },
    {
      "inputs": [
        {
          "internalType": "uint256",
          "name": "_imageID",
          "type": "uint256"
        }
      ],
      "name": "roundEnd",
      "outputs": [],
      "stateMutability": "nonpayable",
      "type": "function"
    },
    {
      "inputs": [],
      "name": "withdraw",
      "outputs": [
        {
          "internalType": "bool",
          "name": "success",
          "type": "bool"
        }
      ],
      "stateMutability": "nonpayable",
      "type": "function"
    },
    {
      "inputs": [],
      "name": "cancelAuction",
      "outputs": [],
      "stateMutability": "nonpayable",
      "type": "function"
    }
  ],
  "bytecode": "0x60806040526001600e556078601455603c6015553480156200002057600080fd5b506040516200477e3803806200477e8339818101604052810190620000469190620002a3565b6040518060400160405280600f81526020017f4e4654204d61726b6574706c61636500000000000000000000000000000000008152506040518060400160405280600681526020017f5553544e465400000000000000000000000000000000000000000000000000008152508160009080519060200190620000ca929190620001ae565b508060019080519060200190620000e3929190620001ae565b50505080600b60006101000a81548173ffffffffffffffffffffffffffffffffffffffff021916908373ffffffffffffffffffffffffffffffffffffffff16021790555082600a60006101000a81548173ffffffffffffffffffffffffffffffffffffffff021916908373ffffffffffffffffffffffffffffffffffffffff16021790555081600981905550601454426200017f9190620002f9565b601281905550601554601254620001979190620002f9565b6013819055506001600e819055505050506200048a565b828054620001bc90620003a8565b90600052602060002090601f016020900481019282620001e057600085556200022c565b82601f10620001fb57805160ff19168380011785556200022c565b828001600101855582156200022c579182015b828111156200022b5782518255916020019190600101906200020e565b5b5090506200023b91906200023f565b5090565b5b808211156200025a57600081600090555060010162000240565b5090565b6000815190506200026f816200043c565b92915050565b600081519050620002868162000456565b92915050565b6000815190506200029d8162000470565b92915050565b600080600060608486031215620002b957600080fd5b6000620002c98682870162000275565b9350506020620002dc868287016200028c565b9250506040620002ef868287016200025e565b9150509250925092565b600062000306826200039e565b915062000313836200039e565b9250827fffffffffffffffffffffffffffffffffffffffffffffffffffffffffffffffff038211156200034b576200034a620003de565b5b828201905092915050565b600062000363826200037e565b9050919050565b600062000377826200037e565b9050919050565b600073ffffffffffffffffffffffffffffffffffffffff82169050919050565b6000819050919050565b60006002820490506001821680620003c157607f821691505b60208210811415620003d857620003d76200040d565b5b50919050565b7f4e487b7100000000000000000000000000000000000000000000000000000000600052601160045260246000fd5b7f4e487b7100000000000000000000000000000000000000000000000000000000600052602260045260246000fd5b620004478162000356565b81146200045357600080fd5b50565b62000461816200036a565b81146200046d57600080fd5b50565b6200047b816200039e565b81146200048757600080fd5b50565b6142e4806200049a6000396000f3fe6080604052600436106102305760003560e01c806370a082311161012e578063a1d87633116100ab578063d1ab07b41161006f578063d1ab07b414610841578063d3a863861461086a578063e985e9c514610895578063f5b56c56146108d2578063fad862b4146108fd57610230565b8063a1d876331461075c578063a22cb46514610787578063b88d4fde146107b0578063c623674f146107d9578063c87b56dd1461080457610230565b806391f90157116100f257806391f9015714610696578063957bb1e0146106c157806395d89b41146106dd5780639a82a09a146107085780639ef6c17f1461073357610230565b806370a08231146105af57806384856482146105ec57806388b93d12146106295780638da5cb5b146106545780638fa8b7901461067f57610230565b806326b387bb116101bc5780635ec2c7bf116101805780635ec2c7bf146104c857806360726abb146104f357806361bc221a1461051e5780636352211e146105495780636b08239b1461058657610230565b806326b387bb146103f05780632a1a985b1461042d5780633ccfd60b1461044957806342842e0e146104745780634e2786fb1461049d57610230565b8063081812fc11610203578063081812fc1461030b578063095ea7b31461034857806312fa6feb1461037157806322b457271461039c57806323b872dd146103c757610230565b806301495c1c1461023557806301ffc9a71461027357806303e6af2e146102b057806306fdde03146102e0575b600080fd5b34801561024157600080fd5b5061025c600480360381019061025791906130fc565b61093a565b60405161026a929190613983565b60405180910390f35b34801561027f57600080fd5b5061029a60048036038101906102959190613161565b61097b565b6040516102a791906136d0565b60405180910390f35b6102ca60048036038101906102c591906131f4565b610a5d565b6040516102d791906136d0565b60405180910390f35b3480156102ec57600080fd5b506102f5610c1c565b6040516103029190613706565b60405180910390f35b34801561031757600080fd5b50610332600480360381019061032d91906131f4565b610cae565b60405161033f91906135ee565b60405180910390f35b34801561035457600080fd5b5061036f600480360381019061036a91906130fc565b610d33565b005b34801561037d57600080fd5b50610386610e4b565b60405161039391906136d0565b60405180910390f35b3480156103a857600080fd5b506103b1610e5e565b6040516103be9190613968565b60405180910390f35b3480156103d357600080fd5b506103ee60048036038101906103e99190612ff6565b610e64565b005b3480156103fc57600080fd5b5061041760048036038101906104129190612f91565b610ec4565b6040516104249190613968565b60405180910390f35b610447600480360381019061044291906131f4565b610edc565b005b34801561045557600080fd5b5061045e610f81565b60405161046b91906136d0565b60405180910390f35b34801561048057600080fd5b5061049b60048036038101906104969190612ff6565b6110ee565b005b3480156104a957600080fd5b506104b261110e565b6040516104bf9190613968565b60405180910390f35b3480156104d457600080fd5b506104dd611114565b6040516104ea91906135ee565b60405180910390f35b3480156104ff57600080fd5b5061050861113a565b6040516105159190613968565b60405180910390f35b34801561052a57600080fd5b50610533611140565b6040516105409190613968565b60405180910390f35b34801561055557600080fd5b50610570600480360381019061056b91906131f4565b611146565b60405161057d91906135ee565b60405180910390f35b34801561059257600080fd5b506105ad60048036038101906105a891906131b3565b6111f8565b005b3480156105bb57600080fd5b506105d660048036038101906105d19190612f91565b611370565b6040516105e39190613968565b60405180910390f35b3480156105f857600080fd5b50610613600480360381019061060e91906131f4565b611428565b6040516106209190613706565b60405180910390f35b34801561063557600080fd5b5061063e6114d4565b60405161064b91906136eb565b60405180910390f35b34801561066057600080fd5b50610669611553565b6040516106769190613609565b60405180910390f35b34801561068b57600080fd5b50610694611579565b005b3480156106a257600080fd5b506106ab611624565b6040516106b891906135ee565b60405180910390f35b6106db60048036038101906106d69190613138565b61164a565b005b3480156106e957600080fd5b506106f261170a565b6040516106ff9190613706565b60405180910390f35b34801561071457600080fd5b5061071d61179c565b60405161072a91906136d0565b60405180910390f35b34801561073f57600080fd5b5061075a600480360381019061075591906131f4565b6117af565b005b34801561076857600080fd5b50610771611a4d565b60405161077e91906136eb565b60405180910390f35b34801561079357600080fd5b506107ae60048036038101906107a991906130c0565b611a53565b005b3480156107bc57600080fd5b506107d760048036038101906107d29190613045565b611bd4565b005b3480156107e557600080fd5b506107ee611c36565b6040516107fb9190613968565b60405180910390f35b34801561081057600080fd5b5061082b600480360381019061082691906131f4565b611c3c565b6040516108389190613706565b60405180910390f35b34801561084d57600080fd5b50610868600480360381019061086391906131f4565b611ce3565b005b34801561087657600080fd5b5061087f612155565b60405161088c9190613968565b60405180910390f35b3480156108a157600080fd5b506108bc60048036038101906108b79190612fba565b61215b565b6040516108c991906136d0565b60405180910390f35b3480156108de57600080fd5b506108e76121ef565b6040516108f49190613968565b60405180910390f35b34801561090957600080fd5b50610924600480360381019061091f91906131b3565b6121f5565b6040516109319190613968565b60405180910390f35b6019602052816000526040600020818154811061095657600080fd5b9060005260206000209060020201600091509150508060000154908060010154905082565b60007f80ac58cd000000000000000000000000000000000000000000000000000000007bffffffffffffffffffffffffffffffffffffffffffffffffffffffff1916827bffffffffffffffffffffffffffffffffffffffffffffffffffffffff19161480610a4657507f5b5e139f000000000000000000000000000000000000000000000000000000007bffffffffffffffffffffffffffffffffffffffffffffffffffffffff1916827bffffffffffffffffffffffffffffffffffffffffffffffffffffffff1916145b80610a565750610a5582612223565b5b9050919050565b600080610a6983611146565b90508073ffffffffffffffffffffffffffffffffffffffff163373ffffffffffffffffffffffffffffffffffffffff161415610ada576040517f08c379a0000000000000000000000000000000000000000000000000000000008152600401610ad190613728565b60405180910390fd5b60003414158015610b0157503373ffffffffffffffffffffffffffffffffffffffff163134105b610b40576040517f08c379a0000000000000000000000000000000000000000000000000000000008152600401610b3790613828565b60405180910390fd5b8073ffffffffffffffffffffffffffffffffffffffff166108fc349081150290604051600060405180830381858888f19350505050158015610b86573d6000803e3d6000fd5b50670de0b6b3a76400003414610bd1576040517f08c379a0000000000000000000000000000000000000000000000000000000008152600401610bc890613888565b60405180910390fd5b610c128133856040518060400160405280600681526020017f456e6a6f7921000000000000000000000000000000000000000000000000000081525061228d565b6001915050919050565b606060008054610c2b90613c03565b80601f0160208091040260200160405190810160405280929190818152602001828054610c5790613c03565b8015610ca45780601f10610c7957610100808354040283529160200191610ca4565b820191906000526020600020905b815481529060010190602001808311610c8757829003601f168201915b5050505050905090565b6000610cb9826122e9565b610cf8576040517f08c379a0000000000000000000000000000000000000000000000000000000008152600401610cef906138c8565b60405180910390fd5b6004600083815260200190815260200160002060009054906101000a900473ffffffffffffffffffffffffffffffffffffffff169050919050565b6000610d3e82611146565b90508073ffffffffffffffffffffffffffffffffffffffff168373ffffffffffffffffffffffffffffffffffffffff161415610daf576040517f08c379a0000000000000000000000000000000000000000000000000000000008152600401610da690613928565b60405180910390fd5b8073ffffffffffffffffffffffffffffffffffffffff16610dce612355565b73ffffffffffffffffffffffffffffffffffffffff161480610dfd5750610dfc81610df7612355565b61215b565b5b610e3c576040517f08c379a0000000000000000000000000000000000000000000000000000000008152600401610e33906137e8565b60405180910390fd5b610e46838361235d565b505050565b601660009054906101000a900460ff1681565b600f5481565b610e75610e6f612355565b82612416565b610eb4576040517f08c379a0000000000000000000000000000000000000000000000000000000008152600401610eab90613948565b60405180910390fd5b610ebf8383836124f4565b505050565b601a6020528060005260406000206000915090505481565b601660009054906101000a900460ff1615610ef657600080fd5b600a60009054906101000a900473ffffffffffffffffffffffffffffffffffffffff1673ffffffffffffffffffffffffffffffffffffffff163373ffffffffffffffffffffffffffffffffffffffff161415610f5157600080fd5b80604051602001610f6291906135d3565b6040516020818303038152906040528051906020012060118190555050565b6000600c60009054906101000a900473ffffffffffffffffffffffffffffffffffffffff1673ffffffffffffffffffffffffffffffffffffffff163373ffffffffffffffffffffffffffffffffffffffff16141580610ff3575060011515601660019054906101000a900460ff161515145b610ffc57600080fd5b600080339150601a60008373ffffffffffffffffffffffffffffffffffffffff1673ffffffffffffffffffffffffffffffffffffffff16815260200190815260200160002054905060008111156110e4576000601a60008473ffffffffffffffffffffffffffffffffffffffff1673ffffffffffffffffffffffffffffffffffffffff168152602001908152602001600020819055508173ffffffffffffffffffffffffffffffffffffffff166108fc829081150290604051600060405180830381858888f193505050501580156110d8573d6000803e3d6000fd5b506001925050506110eb565b6000925050505b90565b61110983838360405180602001604052806000815250611bd4565b505050565b600e5481565b600b60009054906101000a900473ffffffffffffffffffffffffffffffffffffffff1681565b60105481565b60075481565b6000806002600084815260200190815260200160002060009054906101000a900473ffffffffffffffffffffffffffffffffffffffff169050600073ffffffffffffffffffffffffffffffffffffffff168173ffffffffffffffffffffffffffffffffffffffff1614156111ef576040517f08c379a00000000000000000000000000000000000000000000000000000000081526004016111e690613868565b60405180910390fd5b80915050919050565b6017816040516112089190613598565b908152602001604051809103902060009054906101000a900460ff1615611264576040517f08c379a000000000000000000000000000000000000000000000000000000000815260040161125b90613808565b60405180910390fd5b600060075490506006829080600181540180825580915050600190039060005260206000200160009091909190915090805190602001906112a6929190612da0565b506112b13382612750565b60016017836040516112c39190613598565b908152602001604051809103902060006101000a81548160ff021916908315150217905550806018836040516112f99190613598565b90815260200160405180910390208190555061131481611146565b600a60006101000a81548173ffffffffffffffffffffffffffffffffffffffff021916908373ffffffffffffffffffffffffffffffffffffffff1602179055506007600081548092919061136790613c66565b91905055505050565b60008073ffffffffffffffffffffffffffffffffffffffff168273ffffffffffffffffffffffffffffffffffffffff1614156113e1576040517f08c379a00000000000000000000000000000000000000000000000000000000081526004016113d890613848565b60405180910390fd5b600360008373ffffffffffffffffffffffffffffffffffffffff1673ffffffffffffffffffffffffffffffffffffffff168152602001908152602001600020549050919050565b6006818154811061143857600080fd5b90600052602060002001600091509050805461145390613c03565b80601f016020809104026020016040519081016040528092919081815260200182805461147f90613c03565b80156114cc5780601f106114a1576101008083540402835291602001916114cc565b820191906000526020600020905b8154815290600101906020018083116114af57829003601f168201915b505050505081565b6000601660009054906101000a900460ff16156114f057600080fd5b600a60009054906101000a900473ffffffffffffffffffffffffffffffffffffffff1673ffffffffffffffffffffffffffffffffffffffff163373ffffffffffffffffffffffffffffffffffffffff16141561154b57600080fd5b601154905090565b600a60009054906101000a900473ffffffffffffffffffffffffffffffffffffffff1681565b601660019054906101000a900460ff161561159357600080fd5b601660009054906101000a900460ff16156115ad57600080fd5b600b60009054906101000a900473ffffffffffffffffffffffffffffffffffffffff1673ffffffffffffffffffffffffffffffffffffffff163373ffffffffffffffffffffffffffffffffffffffff161461160757600080fd5b6001601660016101000a81548160ff021916908315150217905550565b600c60009054906101000a900473ffffffffffffffffffffffffffffffffffffffff1681565b60125480421061165957600080fd5b601660019054906101000a900460ff161561167357600080fd5b601960003373ffffffffffffffffffffffffffffffffffffffff1673ffffffffffffffffffffffffffffffffffffffff1681526020019081526020016000206040518060400160405280348152602001848152509080600181540180825580915050600190039060005260206000209060020201600090919091909150600082015181600001556020820151816001015550505050565b60606001805461171990613c03565b80601f016020809104026020016040519081016040528092919081815260200182805461174590613c03565b80156117925780601f1061176757610100808354040283529160200191611792565b820191906000526020600020905b81548152906001019060200180831161177557829003601f168201915b5050505050905090565b601660019054906101000a900460ff1681565b6013548042116117be57600080fd5b600b60009054906101000a900473ffffffffffffffffffffffffffffffffffffffff1673ffffffffffffffffffffffffffffffffffffffff163373ffffffffffffffffffffffffffffffffffffffff161461181857600080fd5b601660019054906101000a900460ff161561183257600080fd5b601660009054906101000a900460ff161561184c57600080fd5b6001600f5411156118c6577f058b7dbb20bfd3991f864b0981b80accb9620c4b2e4f38712eaf1b53b189a0b3600c60009054906101000a900473ffffffffffffffffffffffffffffffffffffffff16600d54600f546040516118b093929190613699565b60405180910390a16118c061276e565b50611a49565b601660009054906101000a900460ff16156118e057600080fd5b7fdaec4582d5d9595688c8c98545fdd1c696d41c6aeaeb636737e84ed2f5c00eda600c60009054906101000a900473ffffffffffffffffffffffffffffffffffffffff16600d54604051611935929190613670565b60405180910390a16001601660006101000a81548160ff0219169083151502179055506119dd600a60009054906101000a900473ffffffffffffffffffffffffffffffffffffffff16600c60009054906101000a900473ffffffffffffffffffffffffffffffffffffffff16846040518060400160405280600681526020017f456e6a6f7921000000000000000000000000000000000000000000000000000081525061228d565b600a60009054906101000a900473ffffffffffffffffffffffffffffffffffffffff1673ffffffffffffffffffffffffffffffffffffffff166108fc600d549081150290604051600060405180830381858888f19350505050158015611a47573d6000803e3d6000fd5b505b5050565b60115481565b611a5b612355565b73ffffffffffffffffffffffffffffffffffffffff168273ffffffffffffffffffffffffffffffffffffffff161415611ac9576040517f08c379a0000000000000000000000000000000000000000000000000000000008152600401611ac0906137a8565b60405180910390fd5b8060056000611ad6612355565b73ffffffffffffffffffffffffffffffffffffffff1673ffffffffffffffffffffffffffffffffffffffff16815260200190815260200160002060008473ffffffffffffffffffffffffffffffffffffffff1673ffffffffffffffffffffffffffffffffffffffff16815260200190815260200160002060006101000a81548160ff0219169083151502179055508173ffffffffffffffffffffffffffffffffffffffff16611b83612355565b73ffffffffffffffffffffffffffffffffffffffff167f17307eab39ab6107e8899845ad3d59bd9653f200f220920489ca2b5937696c3183604051611bc891906136d0565b60405180910390a35050565b611be5611bdf612355565b83612416565b611c24576040517f08c379a0000000000000000000000000000000000000000000000000000000008152600401611c1b90613948565b60405180910390fd5b611c308484848461228d565b50505050565b60085481565b6060611c47826122e9565b611c86576040517f08c379a0000000000000000000000000000000000000000000000000000000008152600401611c7d90613908565b60405180910390fd5b6000611c90612804565b90506000815111611cb05760405180602001604052806000815250611cdb565b80611cba8461281b565b604051602001611ccb9291906135af565b6040516020818303038152906040525b915050919050565b601254804211611cf257600080fd5b601354804210611d0157600080fd5b601660019054906101000a900460ff1615611d1b57600080fd5b601660009054906101000a900460ff1615611d3557600080fd5b600080601960003373ffffffffffffffffffffffffffffffffffffffff1673ffffffffffffffffffffffffffffffffffffffff16815260200190815260200160002080549050905084601960003373ffffffffffffffffffffffffffffffffffffffff1673ffffffffffffffffffffffffffffffffffffffff168152602001908152602001600020600183611dca9190613afd565b81548110611e01577f4e487b7100000000000000000000000000000000000000000000000000000000600052603260045260246000fd5b906000526020600020906002020160000154611e1d9190613afd565b601960003373ffffffffffffffffffffffffffffffffffffffff1673ffffffffffffffffffffffffffffffffffffffff168152602001908152602001600020600183611e699190613afd565b81548110611ea0577f4e487b7100000000000000000000000000000000000000000000000000000000600052603260045260246000fd5b906000526020600020906002020160000181905550600e548114611ec357600080fd5b6000601960003373ffffffffffffffffffffffffffffffffffffffff1673ffffffffffffffffffffffffffffffffffffffff168152602001908152602001600020600183611f119190613afd565b81548110611f48577f4e487b7100000000000000000000000000000000000000000000000000000000600052603260045260246000fd5b9060005260206000209060020201905085604051602001611f6991906135d3565b60405160208183030381529060405280519060200120816001015414611f8e57600080fd5b60005b82811015612048576000601960003373ffffffffffffffffffffffffffffffffffffffff1673ffffffffffffffffffffffffffffffffffffffff1681526020019081526020016000208281548110612012577f4e487b7100000000000000000000000000000000000000000000000000000000600052603260045260246000fd5b906000526020600020906002020190508060000154856120329190613a76565b945050808061204090613c66565b915050611f91565b503373ffffffffffffffffffffffffffffffffffffffff166108fc879081150290604051600060405180830381858888f1935050505015801561208f573d6000803e3d6000fd5b50600954831161209e57600080fd5b600d548311156120f15782600d8190555033600c60006101000a81548173ffffffffffffffffffffffffffffffffffffffff021916908373ffffffffffffffffffffffffffffffffffffffff1602179055505b82601a60003373ffffffffffffffffffffffffffffffffffffffff1673ffffffffffffffffffffffffffffffffffffffff16815260200190815260200160002081905550600f600081548092919061214890613c66565b9190505550505050505050565b60095481565b6000600560008473ffffffffffffffffffffffffffffffffffffffff1673ffffffffffffffffffffffffffffffffffffffff16815260200190815260200160002060008373ffffffffffffffffffffffffffffffffffffffff1673ffffffffffffffffffffffffffffffffffffffff16815260200190815260200160002060009054906101000a900460ff16905092915050565b600d5481565b6018818051602081018201805184825260208301602085012081835280955050505050506000915090505481565b60007f01ffc9a7000000000000000000000000000000000000000000000000000000007bffffffffffffffffffffffffffffffffffffffffffffffffffffffff1916827bffffffffffffffffffffffffffffffffffffffffffffffffffffffff1916149050919050565b6122988484846124f4565b6122a4848484846129c8565b6122e3576040517f08c379a00000000000000000000000000000000000000000000000000000000081526004016122da90613748565b60405180910390fd5b50505050565b60008073ffffffffffffffffffffffffffffffffffffffff166002600084815260200190815260200160002060009054906101000a900473ffffffffffffffffffffffffffffffffffffffff1673ffffffffffffffffffffffffffffffffffffffff1614159050919050565b600033905090565b816004600083815260200190815260200160002060006101000a81548173ffffffffffffffffffffffffffffffffffffffff021916908373ffffffffffffffffffffffffffffffffffffffff160217905550808273ffffffffffffffffffffffffffffffffffffffff166123d083611146565b73ffffffffffffffffffffffffffffffffffffffff167f8c5be1e5ebec7d5bd14f71427d1e84f3dd0314c0f7b2291e5b200ac8c7c3b92560405160405180910390a45050565b6000612421826122e9565b612460576040517f08c379a0000000000000000000000000000000000000000000000000000000008152600401612457906137c8565b60405180910390fd5b600061246b83611146565b90508073ffffffffffffffffffffffffffffffffffffffff168473ffffffffffffffffffffffffffffffffffffffff1614806124da57508373ffffffffffffffffffffffffffffffffffffffff166124c284610cae565b73ffffffffffffffffffffffffffffffffffffffff16145b806124eb57506124ea818561215b565b5b91505092915050565b8273ffffffffffffffffffffffffffffffffffffffff1661251482611146565b73ffffffffffffffffffffffffffffffffffffffff161461256a576040517f08c379a0000000000000000000000000000000000000000000000000000000008152600401612561906138e8565b60405180910390fd5b600073ffffffffffffffffffffffffffffffffffffffff168273ffffffffffffffffffffffffffffffffffffffff1614156125da576040517f08c379a00000000000000000000000000000000000000000000000000000000081526004016125d190613788565b60405180910390fd5b6125e5838383612b5f565b6125f060008261235d565b6001600360008573ffffffffffffffffffffffffffffffffffffffff1673ffffffffffffffffffffffffffffffffffffffff16815260200190815260200160002060008282546126409190613afd565b925050819055506001600360008473ffffffffffffffffffffffffffffffffffffffff1673ffffffffffffffffffffffffffffffffffffffff16815260200190815260200160002060008282546126979190613a76565b92505081905550816002600083815260200190815260200160002060006101000a81548173ffffffffffffffffffffffffffffffffffffffff021916908373ffffffffffffffffffffffffffffffffffffffff160217905550808273ffffffffffffffffffffffffffffffffffffffff168473ffffffffffffffffffffffffffffffffffffffff167fddf252ad1be2c89b69c2b068fc378daa952ba7f163c4a11628f55a4df523b3ef60405160405180910390a4505050565b61276a828260405180602001604052806000815250612b64565b5050565b6000600d546009819055506000600f81905550600e600081548092919061279490613c66565b9190505550601454426127a79190613a76565b6012819055506015546012546127bd9190613a76565b6013819055507f64402c079e310de4fa60493e0474309303db59c5e6fb8e068a192e8d1997fe5a6009546040516127f49190613968565b60405180910390a1600954905090565b606060405180602001604052806000815250905090565b60606000821415612863576040518060400160405280600181526020017f300000000000000000000000000000000000000000000000000000000000000081525090506129c3565b600082905060005b6000821461289557808061287e90613c66565b915050600a8261288e9190613acc565b915061286b565b60008167ffffffffffffffff8111156128d7577f4e487b7100000000000000000000000000000000000000000000000000000000600052604160045260246000fd5b6040519080825280601f01601f1916602001820160405280156129095781602001600182028036833780820191505090505b5090505b600085146129bc576001826129229190613afd565b9150600a856129319190613cb9565b603061293d9190613a76565b60f81b818381518110612979577f4e487b7100000000000000000000000000000000000000000000000000000000600052603260045260246000fd5b60200101907effffffffffffffffffffffffffffffffffffffffffffffffffffffffffffff1916908160001a905350600a856129b59190613acc565b945061290d565b8093505050505b919050565b60006129e98473ffffffffffffffffffffffffffffffffffffffff16612bbf565b15612b52578373ffffffffffffffffffffffffffffffffffffffff1663150b7a02612a12612355565b8786866040518563ffffffff1660e01b8152600401612a349493929190613624565b602060405180830381600087803b158015612a4e57600080fd5b505af1925050508015612a7f57506040513d601f19601f82011682018060405250810190612a7c919061318a565b60015b612b02573d8060008114612aaf576040519150601f19603f3d011682016040523d82523d6000602084013e612ab4565b606091505b50600081511415612afa576040517f08c379a0000000000000000000000000000000000000000000000000000000008152600401612af190613748565b60405180910390fd5b805181602001fd5b63150b7a0260e01b7bffffffffffffffffffffffffffffffffffffffffffffffffffffffff1916817bffffffffffffffffffffffffffffffffffffffffffffffffffffffff191614915050612b57565b600190505b949350505050565b505050565b612b6e8383612bd2565b612b7b60008484846129c8565b612bba576040517f08c379a0000000000000000000000000000000000000000000000000000000008152600401612bb190613748565b60405180910390fd5b505050565b600080823b905060008111915050919050565b600073ffffffffffffffffffffffffffffffffffffffff168273ffffffffffffffffffffffffffffffffffffffff161415612c42576040517f08c379a0000000000000000000000000000000000000000000000000000000008152600401612c39906138a8565b60405180910390fd5b612c4b816122e9565b15612c8b576040517f08c379a0000000000000000000000000000000000000000000000000000000008152600401612c8290613768565b60405180910390fd5b612c9760008383612b5f565b6001600360008473ffffffffffffffffffffffffffffffffffffffff1673ffffffffffffffffffffffffffffffffffffffff1681526020019081526020016000206000828254612ce79190613a76565b92505081905550816002600083815260200190815260200160002060006101000a81548173ffffffffffffffffffffffffffffffffffffffff021916908373ffffffffffffffffffffffffffffffffffffffff160217905550808273ffffffffffffffffffffffffffffffffffffffff16600073ffffffffffffffffffffffffffffffffffffffff167fddf252ad1be2c89b69c2b068fc378daa952ba7f163c4a11628f55a4df523b3ef60405160405180910390a45050565b828054612dac90613c03565b90600052602060002090601f016020900481019282612dce5760008555612e15565b82601f10612de757805160ff1916838001178555612e15565b82800160010185558215612e15579182015b82811115612e14578251825591602001919060010190612df9565b5b509050612e229190612e26565b5090565b5b80821115612e3f576000816000905550600101612e27565b5090565b6000612e56612e51846139d1565b6139ac565b905082815260208101848484011115612e6e57600080fd5b612e79848285613bc1565b509392505050565b6000612e94612e8f84613a02565b6139ac565b905082815260208101848484011115612eac57600080fd5b612eb7848285613bc1565b509392505050565b600081359050612ece8161423b565b92915050565b600081359050612ee381614252565b92915050565b600081359050612ef881614269565b92915050565b600081359050612f0d81614280565b92915050565b600081519050612f2281614280565b92915050565b600082601f830112612f3957600080fd5b8135612f49848260208601612e43565b91505092915050565b600082601f830112612f6357600080fd5b8135612f73848260208601612e81565b91505092915050565b600081359050612f8b81614297565b92915050565b600060208284031215612fa357600080fd5b6000612fb184828501612ebf565b91505092915050565b60008060408385031215612fcd57600080fd5b6000612fdb85828601612ebf565b9250506020612fec85828601612ebf565b9150509250929050565b60008060006060848603121561300b57600080fd5b600061301986828701612ebf565b935050602061302a86828701612ebf565b925050604061303b86828701612f7c565b9150509250925092565b6000806000806080858703121561305b57600080fd5b600061306987828801612ebf565b945050602061307a87828801612ebf565b935050604061308b87828801612f7c565b925050606085013567ffffffffffffffff8111156130a857600080fd5b6130b487828801612f28565b91505092959194509250565b600080604083850312156130d357600080fd5b60006130e185828601612ebf565b92505060206130f285828601612ed4565b9150509250929050565b6000806040838503121561310f57600080fd5b600061311d85828601612ebf565b925050602061312e85828601612f7c565b9150509250929050565b60006020828403121561314a57600080fd5b600061315884828501612ee9565b91505092915050565b60006020828403121561317357600080fd5b600061318184828501612efe565b91505092915050565b60006020828403121561319c57600080fd5b60006131aa84828501612f13565b91505092915050565b6000602082840312156131c557600080fd5b600082013567ffffffffffffffff8111156131df57600080fd5b6131eb84828501612f52565b91505092915050565b60006020828403121561320657600080fd5b600061321484828501612f7c565b91505092915050565b61322681613b43565b82525050565b61323581613b31565b82525050565b61324481613b55565b82525050565b61325381613b61565b82525050565b600061326482613a33565b61326e8185613a49565b935061327e818560208601613bd0565b61328781613da6565b840191505092915050565b600061329d82613a3e565b6132a78185613a5a565b93506132b7818560208601613bd0565b6132c081613da6565b840191505092915050565b60006132d682613a3e565b6132e08185613a6b565b93506132f0818560208601613bd0565b80840191505092915050565b6000613309601683613a5a565b915061331482613db7565b602082019050919050565b600061332c603283613a5a565b915061333782613de0565b604082019050919050565b600061334f601c83613a5a565b915061335a82613e2f565b602082019050919050565b6000613372602483613a5a565b915061337d82613e58565b604082019050919050565b6000613395601983613a5a565b91506133a082613ea7565b602082019050919050565b60006133b8602c83613a5a565b91506133c382613ed0565b604082019050919050565b60006133db603883613a5a565b91506133e682613f1f565b604082019050919050565b60006133fe601483613a5a565b915061340982613f6e565b602082019050919050565b6000613421601883613a5a565b915061342c82613f97565b602082019050919050565b6000613444602a83613a5a565b915061344f82613fc0565b604082019050919050565b6000613467602983613a5a565b91506134728261400f565b604082019050919050565b600061348a601383613a5a565b91506134958261405e565b602082019050919050565b60006134ad602083613a5a565b91506134b882614087565b602082019050919050565b60006134d0602c83613a5a565b91506134db826140b0565b604082019050919050565b60006134f3602983613a5a565b91506134fe826140ff565b604082019050919050565b6000613516602f83613a5a565b91506135218261414e565b604082019050919050565b6000613539602183613a5a565b91506135448261419d565b604082019050919050565b600061355c603183613a5a565b9150613567826141ec565b604082019050919050565b61357b81613bb7565b82525050565b61359261358d82613bb7565b613caf565b82525050565b60006135a482846132cb565b915081905092915050565b60006135bb82856132cb565b91506135c782846132cb565b91508190509392505050565b60006135df8284613581565b60208201915081905092915050565b6000602082019050613603600083018461322c565b92915050565b600060208201905061361e600083018461321d565b92915050565b6000608082019050613639600083018761322c565b613646602083018661322c565b6136536040830185613572565b81810360608301526136658184613259565b905095945050505050565b6000604082019050613685600083018561322c565b6136926020830184613572565b9392505050565b60006060820190506136ae600083018661322c565b6136bb6020830185613572565b6136c86040830184613572565b949350505050565b60006020820190506136e5600083018461323b565b92915050565b6000602082019050613700600083018461324a565b92915050565b600060208201905081810360008301526137208184613292565b905092915050565b60006020820190508181036000830152613741816132fc565b9050919050565b600060208201905081810360008301526137618161331f565b9050919050565b6000602082019050818103600083015261378181613342565b9050919050565b600060208201905081810360008301526137a181613365565b9050919050565b600060208201905081810360008301526137c181613388565b9050919050565b600060208201905081810360008301526137e1816133ab565b9050919050565b60006020820190508181036000830152613801816133ce565b9050919050565b60006020820190508181036000830152613821816133f1565b9050919050565b6000602082019050818103600083015261384181613414565b9050919050565b6000602082019050818103600083015261386181613437565b9050919050565b600060208201905081810360008301526138818161345a565b9050919050565b600060208201905081810360008301526138a18161347d565b9050919050565b600060208201905081810360008301526138c1816134a0565b9050919050565b600060208201905081810360008301526138e1816134c3565b9050919050565b60006020820190508181036000830152613901816134e6565b9050919050565b6000602082019050818103600083015261392181613509565b9050919050565b600060208201905081810360008301526139418161352c565b9050919050565b600060208201905081810360008301526139618161354f565b9050919050565b600060208201905061397d6000830184613572565b92915050565b60006040820190506139986000830185613572565b6139a5602083018461324a565b9392505050565b60006139b66139c7565b90506139c28282613c35565b919050565b6000604051905090565b600067ffffffffffffffff8211156139ec576139eb613d77565b5b6139f582613da6565b9050602081019050919050565b600067ffffffffffffffff821115613a1d57613a1c613d77565b5b613a2682613da6565b9050602081019050919050565b600081519050919050565b600081519050919050565b600082825260208201905092915050565b600082825260208201905092915050565b600081905092915050565b6000613a8182613bb7565b9150613a8c83613bb7565b9250827fffffffffffffffffffffffffffffffffffffffffffffffffffffffffffffffff03821115613ac157613ac0613cea565b5b828201905092915050565b6000613ad782613bb7565b9150613ae283613bb7565b925082613af257613af1613d19565b5b828204905092915050565b6000613b0882613bb7565b9150613b1383613bb7565b925082821015613b2657613b25613cea565b5b828203905092915050565b6000613b3c82613b97565b9050919050565b6000613b4e82613b97565b9050919050565b60008115159050919050565b6000819050919050565b60007fffffffff0000000000000000000000000000000000000000000000000000000082169050919050565b600073ffffffffffffffffffffffffffffffffffffffff82169050919050565b6000819050919050565b82818337600083830152505050565b60005b83811015613bee578082015181840152602081019050613bd3565b83811115613bfd576000848401525b50505050565b60006002820490506001821680613c1b57607f821691505b60208210811415613c2f57613c2e613d48565b5b50919050565b613c3e82613da6565b810181811067ffffffffffffffff82111715613c5d57613c5c613d77565b5b80604052505050565b6000613c7182613bb7565b91507fffffffffffffffffffffffffffffffffffffffffffffffffffffffffffffffff821415613ca457613ca3613cea565b5b600182019050919050565b6000819050919050565b6000613cc482613bb7565b9150613ccf83613bb7565b925082613cdf57613cde613d19565b5b828206905092915050565b7f4e487b7100000000000000000000000000000000000000000000000000000000600052601160045260246000fd5b7f4e487b7100000000000000000000000000000000000000000000000000000000600052601260045260246000fd5b7f4e487b7100000000000000000000000000000000000000000000000000000000600052602260045260246000fd5b7f4e487b7100000000000000000000000000000000000000000000000000000000600052604160045260246000fd5b6000601f19601f8301169050919050565b7f496d6167654e46543a20627579206279206f776e657200000000000000000000600082015250565b7f4552433732313a207472616e7366657220746f206e6f6e20455243373231526560008201527f63656976657220696d706c656d656e7465720000000000000000000000000000602082015250565b7f4552433732313a20746f6b656e20616c7265616479206d696e74656400000000600082015250565b7f4552433732313a207472616e7366657220746f20746865207a65726f2061646460008201527f7265737300000000000000000000000000000000000000000000000000000000602082015250565b7f4552433732313a20617070726f766520746f2063616c6c657200000000000000600082015250565b7f4552433732313a206f70657261746f7220717565727920666f72206e6f6e657860008201527f697374656e7420746f6b656e0000000000000000000000000000000000000000602082015250565b7f4552433732313a20617070726f76652063616c6c6572206973206e6f74206f7760008201527f6e6572206e6f7220617070726f76656420666f7220616c6c0000000000000000602082015250565b7f696d61676520616c7265616479206d696e746564000000000000000000000000600082015250565b7f496d6167654e46543a206e6f7420656e6f756768206574680000000000000000600082015250565b7f4552433732313a2062616c616e636520717565727920666f7220746865207a6560008201527f726f206164647265737300000000000000000000000000000000000000000000602082015250565b7f4552433732313a206f776e657220717565727920666f72206e6f6e657869737460008201527f656e7420746f6b656e0000000000000000000000000000000000000000000000602082015250565b7f496d6167654e46543a2070617920312045544800000000000000000000000000600082015250565b7f4552433732313a206d696e7420746f20746865207a65726f2061646472657373600082015250565b7f4552433732313a20617070726f76656420717565727920666f72206e6f6e657860008201527f697374656e7420746f6b656e0000000000000000000000000000000000000000602082015250565b7f4552433732313a207472616e73666572206f6620746f6b656e2074686174206960008201527f73206e6f74206f776e0000000000000000000000000000000000000000000000602082015250565b7f4552433732314d657461646174613a2055524920717565727920666f72206e6f60008201527f6e6578697374656e7420746f6b656e0000000000000000000000000000000000602082015250565b7f4552433732313a20617070726f76616c20746f2063757272656e74206f776e6560008201527f7200000000000000000000000000000000000000000000000000000000000000602082015250565b7f4552433732313a207472616e736665722063616c6c6572206973206e6f74206f60008201527f776e6572206e6f7220617070726f766564000000000000000000000000000000602082015250565b61424481613b31565b811461424f57600080fd5b50565b61425b81613b55565b811461426657600080fd5b50565b61427281613b61565b811461427d57600080fd5b50565b61428981613b6b565b811461429457600080fd5b50565b6142a081613bb7565b81146142ab57600080fd5b5056fea2646970667358221220e37ab7edbe36a2aa0c2cd67e52f366fe8828527264231a56da54335b6004e2c164736f6c63430008040033",
  "immutableReferences": {},
  "source": "// SPDX-License-Identifier: MIT\npragma solidity 0.8.4;\n\nimport \"@openzeppelin/contracts/token/ERC721/ERC721.sol\";\n\ncontract ImageNFT is ERC721(\"NFT Marketplace\", \"USTNFT\") {\n    //Variables Marketplace\n    string[] public images;\n    uint256 public counter;\n    uint256 public ipfsHash;\n    \n    //Variables Auction\n    uint256 public minimumBid;\n    address payable public owner;\n    address public auctioneer;\n    address public highestBidder;\n    uint256 public highestBindingBid;\n    uint256 public roundNumber=1;\n    uint256 public activeUsersCount;\n    uint256 public copy;\n    bytes32 public hashedBid;\n    uint256 biddingEnd;\n    uint256 revealEnd;\n    uint256 biddingTime = 120 seconds; // bidding time is 150 seconds\n    uint256 revealTime = 60 seconds; // bid revealing time is 60 seconds\n    bool public ended;\n    bool public cancelled;\n\n    struct Bid {\n        // 6 actual + 10 fake = 16\n        // address Bidder;\n        uint256 maskedBid;\n        bytes32 saltHash;\n    }\n\n    mapping(string => bool) imageAlreadyMinted;\n    mapping(string => uint256) public imageIDs;\n   \n   \n    mapping(address => Bid[]) public bids;\n    mapping(address => uint256) public pendingReturns;\n\n\n// MODIFIERS\n \n    modifier onlyBefore(uint256 _time) {\n        require(block.timestamp < _time);\n        _;\n    }\n    modifier onlyAfter(uint256 _time) {\n        require(block.timestamp > _time);\n        _;\n    }\n \n    modifier onlyAuctioneer() {\n        require(msg.sender == auctioneer);\n        _;\n    }\n    modifier onlyOwner() {\n        require(msg.sender == owner);\n        _;\n    }\n    modifier onlyNotOwner() {\n        require(msg.sender != owner);\n        _;\n    }\n    modifier onlyNotCancelled() {\n        require(!cancelled);\n        _;\n    }\n    modifier onlyValidWithdrawal() {\n        require(msg.sender != highestBidder || cancelled == true);\n        _;\n    }\n    modifier onlyNotEnded() {\n        require(!ended);\n        _;\n    }\n \n    // EVENTS\n    event GetBlindBid(bytes32 indexed hashed);\n    event roundEnded(address bidder, uint256 amount, uint256 userCount);\n    event AuctionEnded(address winner, uint256 amount);\n    event roundStarted(uint256 amount);\n\n    //Constructors\n        constructor(\n        address payable _owner,\n        uint256 _minimumBid,\n        address _auctioneer\n    ) {\n        auctioneer = _auctioneer;\n        owner = _owner;\n        minimumBid = _minimumBid;\n        biddingEnd = block.timestamp + biddingTime;\n        revealEnd = biddingEnd + revealTime;\n        //bufferTime = _bufferTime;\n        roundNumber = 1;\n    }\n   \n    //Functions\n    function createImage(string memory _imageCID) public {\n        // cannot mint the same image twice.\n        // IPFS will be used to store images returning a unique CID (image URI).\n        // Since CIDs are based on the image content, same image will always\n        // return same CID.\n        require(!imageAlreadyMinted[_imageCID], \"image already minted\");\n        uint256 newImageId = counter;\n\n        // store the image URI on the Blockchain\n        images.push(_imageCID);\n\n        // mint the image\n        _safeMint(msg.sender, newImageId);\n\n        // store the information that the image has been minted\n        imageAlreadyMinted[_imageCID] = true;\n\n        // store the image ID of the image in a mapping\n        //faiods78dsagk => 0\n        imageIDs[_imageCID] = newImageId;\n\n        // transfer the ownership of the image\n        owner = payable(ownerOf(newImageId));\n\n        counter++;\n    }\n\n    function buyImage(uint256 _imageID) public payable returns (bool) {\n        // ERC721 contract defines requires needed\n        // Double checking would not be optimal since it costs gas\n\n        // get the owner of the image. Always work with local variable\n        // not state variable.\n        address payable ownerAddress = payable(ownerOf(_imageID));\n\n        require(msg.sender != ownerAddress, \"ImageNFT: buy by owner\");\n\n        // cash out ETH\n        require(\n            msg.value != 0 && msg.value < msg.sender.balance,\n            \"ImageNFT: not enough eth\"\n        );\n        payable(ownerAddress).transfer(msg.value);\n\n        // transfer the token CID from the owner to the buyer\n        // images cost 1 ETH\n        require(msg.value == 1 ether, \"ImageNFT: pay 1 ETH\");\n        _safeTransfer(ownerAddress, msg.sender, _imageID, \"Enjoy!\");\n\n        return true;\n    }\n\n     function generateBlindedBidBytes32(uint256 value)\n        payable\n        public\n        onlyNotEnded\n        onlyNotOwner\n       /// returns (bytes32)\n    {\n      \n        hashedBid = keccak256(abi.encodePacked(value));\n       // payable(owner).transfer(value);\n       // bid(hashedBid);\n       // emit GetBlindBid(hashedBid);\n       // return hashedBid;\n    }\n\n    function gettBlindedBidBytes32() public view onlyNotEnded onlyNotOwner returns (bytes32) {\n      //  bytes32 bidHashed = hashedBid;\n       // emit getBlindBid(bidHashed);\n       \n        return hashedBid;\n        \n    }\n\n \n    function bid(bytes32 _blindedBid)\n        public\n        payable\n        onlyBefore(biddingEnd)\n        onlyNotCancelled\n    {\n        // bids[msg.sender].push(\n        //     Bid({blindedBid: _blindedBid, deposit: msg.value})\n        // );\n        // push is used as an array of structs exists and so, the newest struct is pushed into the array and forms the most recent element\n        bids[msg.sender].push(\n            Bid({maskedBid: msg.value, saltHash: _blindedBid})\n        );\n    }\n \n    function revealAndPlaceBid(uint256 extraBid)\n        public\n        onlyAfter(biddingEnd)\n        onlyBefore(revealEnd)\n        onlyNotCancelled\n        onlyNotEnded\n    {\n        uint256 totalBidValue;\n \n        uint256 length = bids[msg.sender].length;\n \n        bids[msg.sender][length - 1].maskedBid =\n            bids[msg.sender][length - 1].maskedBid -\n            extraBid;\n \n        // this function merges both the bid reveal process and the bid placing process\n        // To reveal the bid submitted by the user and place the bid (will return true if the bid is sucessfully placed)\n \n        // 0x1234 => [[hdjwhksjkd, 1], [ervbcdbchebdskcb, 2]]\n        // length measures the number of total bids submitted by the user in all rounds till now (single bid per round)\n        require(length == roundNumber); // check to make sure the user has participated in all rounds of the auction till now\n \n        Bid storage bidToCheck = bids[msg.sender][length - 1];\n \n        require(bidToCheck.saltHash == keccak256(abi.encodePacked(extraBid)));\n \n        for (uint256 i = 0; i < length; i++) {\n            Bid storage roundBid = bids[msg.sender][i];\n            totalBidValue += roundBid.maskedBid;\n        }\n \n        // totalBidValue -= extraBid;\n \n        payable(msg.sender).transfer(extraBid);\n \n        require(totalBidValue > minimumBid);\n        // (when totalBidValue > minimumBid)\n        if (totalBidValue > highestBindingBid) {\n            highestBindingBid = totalBidValue;\n            highestBidder = msg.sender;\n        }\n        pendingReturns[msg.sender] = totalBidValue;\n        activeUsersCount++; // this must be reset / initialized at the start of every round\n    }\n \n    function roundEnd(uint256 _imageID)\n        public\n        onlyAfter(revealEnd)\n        onlyAuctioneer\n        onlyNotCancelled\n        onlyNotEnded\n    {\n        // if will be the case where one round has ended, more than 1 user remains and the auction proceeds to the next round\n        //roundEndTime = block.timestamp;\n \n        // must check for a case where no users participate in a round\n \n        if (activeUsersCount > 1) {\n            emit roundEnded(highestBidder, highestBindingBid, activeUsersCount);\n            roundStart();\n            // minimumBid = highestBid;\n            // activeUsersCount = 0;\n            // roundNumber++;\n        }\n        // else will be the case where the auction has ended and only 1 user remains\n        else {\n            require(!ended);\n            emit AuctionEnded(highestBidder, highestBindingBid);\n            ended = true;\n            // transfer the NFT to the highest bidder\n            // transfer the winning bid to the NFT owner\n            // transfer the NFT image to the highestBidder\n            _safeTransfer(owner, highestBidder, _imageID, \"Enjoy!\");\n            owner.transfer(highestBindingBid);\n\n        }\n    }\n\n    // function roundNumberfun() public returns  (uint256 round_number)\n    // {\n    //     return 1;\n    // }\n    \n    // function highestBidderfun() public returns  (uint256 round_number)\n    // {\n    //     return 1;\n    // }\n\n    // function highestBindingBidfun() public returns  (uint256 round_number)\n    // {\n    //     return 1;\n    // }\n\n    function roundStart() internal returns (uint256 roundStartBid) {\n        minimumBid = highestBindingBid;\n        activeUsersCount = 0;\n        roundNumber++;\n        biddingEnd = block.timestamp + biddingTime;\n        revealEnd = biddingEnd + revealTime;\n        emit roundStarted(minimumBid);\n        return minimumBid;\n    }\n \n    function withdraw() public onlyValidWithdrawal returns (bool success) {\n        // mention when a user can withdraw w.r.t the rounds taking place\n        address withdrawalAccount;\n        uint256 withdrawalAmount;\n \n        withdrawalAccount = msg.sender;\n        withdrawalAmount = pendingReturns[withdrawalAccount];\n        if (withdrawalAmount > 0) {\n            pendingReturns[withdrawalAccount] = 0;\n            payable(withdrawalAccount).transfer(withdrawalAmount);\n            return true;\n        } else {\n            return false;\n        }\n    }\n \n    function cancelAuction()\n        public\n        onlyNotCancelled\n        onlyNotEnded\n        onlyAuctioneer\n    {\n        cancelled = true;\n    }\n\n}",
  "sourcePath": "C:/abc/ronak-ke-landotiya-yaar-main/Auction Platform/contracts/ImageNFT.sol",
  "compiler": {
    "name": "solc",
    "version": "0.8.4+commit.c7e474f2.Emscripten.clang"
  },
  "schemaVersion": "3.4.1",
  "updatedAt": "2021-07-23T09:51:19.334Z",
  "devdoc": {
    "kind": "dev",
    "methods": {
      "approve(address,uint256)": {
        "details": "See {IERC721-approve}."
      },
      "balanceOf(address)": {
        "details": "See {IERC721-balanceOf}."
      },
      "getApproved(uint256)": {
        "details": "See {IERC721-getApproved}."
      },
      "isApprovedForAll(address,address)": {
        "details": "See {IERC721-isApprovedForAll}."
      },
      "name()": {
        "details": "See {IERC721Metadata-name}."
      },
      "ownerOf(uint256)": {
        "details": "See {IERC721-ownerOf}."
      },
      "safeTransferFrom(address,address,uint256)": {
        "details": "See {IERC721-safeTransferFrom}."
      },
      "safeTransferFrom(address,address,uint256,bytes)": {
        "details": "See {IERC721-safeTransferFrom}."
      },
      "setApprovalForAll(address,bool)": {
        "details": "See {IERC721-setApprovalForAll}."
      },
      "supportsInterface(bytes4)": {
        "details": "See {IERC165-supportsInterface}."
      },
      "symbol()": {
        "details": "See {IERC721Metadata-symbol}."
      },
      "tokenURI(uint256)": {
        "details": "See {IERC721Metadata-tokenURI}."
      },
      "transferFrom(address,address,uint256)": {
        "details": "See {IERC721-transferFrom}."
      }
    },
    "version": 1
  },
  "userdoc": {
    "kind": "user",
    "methods": {},
    "version": 1
  }
}